{
  "contractName": "TokenFarm",
  "abi": [
    {
      "inputs": [
        {
          "internalType": "contract DappToken",
          "name": "_dappToken",
          "type": "address"
        },
        {
          "internalType": "contract DaiToken",
          "name": "_daiToken",
          "type": "address"
        },
        {
          "internalType": "contract EthToken",
          "name": "_ethToken",
          "type": "address"
        },
        {
          "internalType": "contract BlToken",
          "name": "_blToken",
          "type": "address"
        },
        {
          "internalType": "contract OpToken",
          "name": "_opToken",
          "type": "address"
        }
      ],
      "payable": false,
      "stateMutability": "nonpayable",
      "type": "constructor"
    },
    {
      "anonymous": false,
      "inputs": [
        {
          "indexed": false,
          "internalType": "uint256",
          "name": "log",
          "type": "uint256"
        }
      ],
      "name": "Debug",
      "type": "event"
    },
    {
      "anonymous": false,
      "inputs": [
        {
          "indexed": false,
          "internalType": "string",
          "name": "msg",
          "type": "string"
        }
      ],
      "name": "Error",
      "type": "event"
    },
    {
      "anonymous": false,
      "inputs": [
        {
          "indexed": false,
          "internalType": "bool",
          "name": "success",
          "type": "bool"
        },
        {
          "indexed": false,
          "internalType": "uint256",
          "name": "collateralAmount",
          "type": "uint256"
        }
      ],
      "name": "TokenBorrowed",
      "type": "event"
    },
    {
      "anonymous": false,
      "inputs": [
        {
          "indexed": false,
          "internalType": "uint256",
          "name": "reward",
          "type": "uint256"
        }
      ],
      "name": "TokenLended",
      "type": "event"
    },
    {
      "anonymous": false,
      "inputs": [
        {
          "indexed": false,
          "internalType": "bool",
          "name": "success",
          "type": "bool"
        },
        {
          "indexed": false,
          "internalType": "uint256",
          "name": "repaymentAmount",
          "type": "uint256"
        }
      ],
      "name": "TokenRepayed",
      "type": "event"
    },
    {
      "anonymous": false,
      "inputs": [
        {
          "indexed": false,
          "internalType": "bool",
          "name": "success",
          "type": "bool"
        },
        {
          "indexed": false,
          "internalType": "uint256",
          "name": "retriveAmount",
          "type": "uint256"
        }
      ],
      "name": "TokenRetrieved",
      "type": "event"
    },
    {
      "constant": true,
      "inputs": [],
      "name": "apyDigits",
      "outputs": [
        {
          "internalType": "uint256",
          "name": "",
          "type": "uint256"
        }
      ],
      "payable": false,
      "stateMutability": "view",
      "type": "function"
    },
    {
      "constant": true,
      "inputs": [],
      "name": "blToken",
      "outputs": [
        {
          "internalType": "contract BlToken",
          "name": "",
          "type": "address"
        }
      ],
      "payable": false,
      "stateMutability": "view",
      "type": "function"
    },
    {
      "constant": true,
      "inputs": [
        {
          "internalType": "string",
          "name": "",
          "type": "string"
        }
      ],
      "name": "borrowApy",
      "outputs": [
        {
          "internalType": "uint256",
          "name": "",
          "type": "uint256"
        }
      ],
      "payable": false,
      "stateMutability": "view",
      "type": "function"
    },
    {
      "constant": true,
      "inputs": [
        {
          "internalType": "address",
          "name": "",
          "type": "address"
        },
        {
          "internalType": "string",
          "name": "",
          "type": "string"
        }
      ],
      "name": "borrowBalance",
      "outputs": [
        {
          "internalType": "uint256",
          "name": "",
          "type": "uint256"
        }
      ],
      "payable": false,
      "stateMutability": "view",
      "type": "function"
    },
    {
      "constant": true,
      "inputs": [
        {
          "internalType": "address",
          "name": "",
          "type": "address"
        },
        {
          "internalType": "string",
          "name": "",
          "type": "string"
        }
      ],
      "name": "borrowCollateralBalance",
      "outputs": [
        {
          "internalType": "uint256",
          "name": "",
          "type": "uint256"
        }
      ],
      "payable": false,
      "stateMutability": "view",
      "type": "function"
    },
    {
      "constant": true,
      "inputs": [],
      "name": "daiToken",
      "outputs": [
        {
          "internalType": "contract DaiToken",
          "name": "",
          "type": "address"
        }
      ],
      "payable": false,
      "stateMutability": "view",
      "type": "function"
    },
    {
      "constant": true,
      "inputs": [],
      "name": "dappToken",
      "outputs": [
        {
          "internalType": "contract DappToken",
          "name": "",
          "type": "address"
        }
      ],
      "payable": false,
      "stateMutability": "view",
      "type": "function"
    },
    {
      "constant": true,
      "inputs": [],
      "name": "ethToken",
      "outputs": [
        {
          "internalType": "contract EthToken",
          "name": "",
          "type": "address"
        }
      ],
      "payable": false,
      "stateMutability": "view",
      "type": "function"
    },
    {
      "constant": true,
      "inputs": [
        {
          "internalType": "string",
          "name": "",
          "type": "string"
        }
      ],
      "name": "marketFund",
      "outputs": [
        {
          "internalType": "uint256",
          "name": "",
          "type": "uint256"
        }
      ],
      "payable": false,
      "stateMutability": "view",
      "type": "function"
    },
    {
      "constant": true,
      "inputs": [
        {
          "internalType": "uint256",
          "name": "",
          "type": "uint256"
        }
      ],
      "name": "mockTokens",
      "outputs": [
        {
          "internalType": "string",
          "name": "",
          "type": "string"
        }
      ],
      "payable": false,
      "stateMutability": "view",
      "type": "function"
    },
    {
      "constant": true,
      "inputs": [],
      "name": "name",
      "outputs": [
        {
          "internalType": "string",
          "name": "",
          "type": "string"
        }
      ],
      "payable": false,
      "stateMutability": "view",
      "type": "function"
    },
    {
      "constant": true,
      "inputs": [],
      "name": "opToken",
      "outputs": [
        {
          "internalType": "contract OpToken",
          "name": "",
          "type": "address"
        }
      ],
      "payable": false,
      "stateMutability": "view",
      "type": "function"
    },
    {
      "constant": true,
      "inputs": [
        {
          "internalType": "string",
          "name": "",
          "type": "string"
        }
      ],
      "name": "profit",
      "outputs": [
        {
          "internalType": "uint256",
          "name": "",
          "type": "uint256"
        }
      ],
      "payable": false,
      "stateMutability": "view",
      "type": "function"
    },
    {
      "constant": true,
      "inputs": [
        {
          "internalType": "address",
          "name": "",
          "type": "address"
        },
        {
          "internalType": "string",
          "name": "",
          "type": "string"
        }
      ],
      "name": "stakingBalance",
      "outputs": [
        {
          "internalType": "uint256",
          "name": "",
          "type": "uint256"
        }
      ],
      "payable": false,
      "stateMutability": "view",
      "type": "function"
    },
    {
      "constant": true,
      "inputs": [
        {
          "internalType": "string",
          "name": "",
          "type": "string"
        }
      ],
      "name": "supplyApy",
      "outputs": [
        {
          "internalType": "uint256",
          "name": "",
          "type": "uint256"
        }
      ],
      "payable": false,
      "stateMutability": "view",
      "type": "function"
    },
    {
      "constant": true,
      "inputs": [],
      "name": "tokenDigits",
      "outputs": [
        {
          "internalType": "uint256",
          "name": "",
          "type": "uint256"
        }
      ],
      "payable": false,
      "stateMutability": "view",
      "type": "function"
    },
    {
      "constant": false,
      "inputs": [
        {
          "internalType": "uint256",
          "name": "_amount",
          "type": "uint256"
        },
        {
          "internalType": "string",
          "name": "tokenToStake",
          "type": "string"
        }
      ],
      "name": "stakeTokens",
      "outputs": [
        {
          "internalType": "uint256",
          "name": "rewardToken",
          "type": "uint256"
        }
      ],
      "payable": false,
      "stateMutability": "nonpayable",
      "type": "function"
    },
    {
      "constant": false,
      "inputs": [
        {
          "internalType": "uint256",
          "name": "_amount",
          "type": "uint256"
        },
        {
          "internalType": "string",
          "name": "tokenToUnStake",
          "type": "string"
        }
      ],
      "name": "dappRequireToUnstake",
      "outputs": [
        {
          "internalType": "uint256",
          "name": "retrivalAmount",
          "type": "uint256"
        }
      ],
      "payable": false,
      "stateMutability": "nonpayable",
      "type": "function"
    },
    {
      "constant": false,
      "inputs": [
        {
          "internalType": "uint256",
          "name": "_amount",
          "type": "uint256"
        },
        {
          "internalType": "string",
          "name": "tokenToUnStake",
          "type": "string"
        }
      ],
      "name": "unstakeTokens",
      "outputs": [],
      "payable": false,
      "stateMutability": "nonpayable",
      "type": "function"
    },
    {
      "constant": false,
      "inputs": [
        {
          "internalType": "uint256",
          "name": "_amount",
          "type": "uint256"
        },
        {
          "internalType": "string",
          "name": "tokenToBorrow",
          "type": "string"
        }
      ],
      "name": "dappRequireToBorrow",
      "outputs": [
        {
          "internalType": "uint256",
          "name": "retrivalAmount",
          "type": "uint256"
        }
      ],
      "payable": false,
      "stateMutability": "nonpayable",
      "type": "function"
    },
    {
      "constant": false,
      "inputs": [
        {
          "internalType": "uint256",
          "name": "_amount",
          "type": "uint256"
        },
        {
          "internalType": "string",
          "name": "tokenToBorrow",
          "type": "string"
        }
      ],
      "name": "borrowTokens",
      "outputs": [],
      "payable": false,
      "stateMutability": "nonpayable",
      "type": "function"
    },
    {
      "constant": false,
      "inputs": [
        {
          "internalType": "string",
          "name": "tokenToRepay",
          "type": "string"
        }
      ],
      "name": "tokenRequireToRepay",
      "outputs": [
        {
          "internalType": "uint256",
          "name": "retrivalAmount",
          "type": "uint256"
        }
      ],
      "payable": false,
      "stateMutability": "nonpayable",
      "type": "function"
    },
    {
      "constant": false,
      "inputs": [
        {
          "internalType": "string",
          "name": "tokenToRepay",
          "type": "string"
        }
      ],
      "name": "repayTokens",
      "outputs": [
        {
          "internalType": "uint256",
          "name": "rewardToken",
          "type": "uint256"
        }
      ],
      "payable": false,
      "stateMutability": "nonpayable",
      "type": "function"
    }
  ],
  "bytecode": "0x60806040526040518060400160405280600f81526020017f4461707020546f6b656e204661726d00000000000000000000000000000000008152506000908051906020019062000051929190620003ee565b5060405180608001604052806040518060400160405280600481526020017f6d4441490000000000000000000000000000000000000000000000000000000081525081526020016040518060400160405280600481526020017f6d4554480000000000000000000000000000000000000000000000000000000081525081526020016040518060400160405280600381526020017f6d424c000000000000000000000000000000000000000000000000000000000081525081526020016040518060400160405280600381526020017f6d4f50000000000000000000000000000000000000000000000000000000000081525081525060079060046200015992919062000475565b50620186a0601255670de0b6b3a76400006013553480156200017a57600080fd5b5060405162003cb538038062003cb58339818101604052620001a091908101906200066e565b84600160006101000a81548173ffffffffffffffffffffffffffffffffffffffff021916908373ffffffffffffffffffffffffffffffffffffffff16021790555083600260006101000a81548173ffffffffffffffffffffffffffffffffffffffff021916908373ffffffffffffffffffffffffffffffffffffffff16021790555082600360006101000a81548173ffffffffffffffffffffffffffffffffffffffff021916908373ffffffffffffffffffffffffffffffffffffffff16021790555081600460006101000a81548173ffffffffffffffffffffffffffffffffffffffff021916908373ffffffffffffffffffffffffffffffffffffffff16021790555080600560006101000a81548173ffffffffffffffffffffffffffffffffffffffff021916908373ffffffffffffffffffffffffffffffffffffffff16021790555033600660006101000a81548173ffffffffffffffffffffffffffffffffffffffff021916908373ffffffffffffffffffffffffffffffffffffffff16021790555060008090505b6004811015620003e2576161a86010600783600481106200034957fe5b016040516200035991906200078a565b908152602001604051809103902081905550614e206011600783600481106200037e57fe5b016040516200038e91906200078a565b9081526020016040518091039020819055506000600c60078360048110620003b257fe5b01604051620003c291906200078a565b90815260200160405180910390208190555080806001019150506200032c565b505050505050620008dd565b828054600181600116156101000203166002900490600052602060002090601f016020900481019282601f106200043157805160ff191683800117855562000462565b8280016001018555821562000462579182015b828111156200046157825182559160200191906001019062000444565b5b509050620004719190620004cf565b5090565b8260048101928215620004bc579160200282015b82811115620004bb578251829080519060200190620004aa929190620004f7565b509160200191906001019062000489565b5b509050620004cb91906200057e565b5090565b620004f491905b80821115620004f0576000816000905550600101620004d6565b5090565b90565b828054600181600116156101000203166002900490600052602060002090601f016020900481019282601f106200053a57805160ff19168380011785556200056b565b828001600101855582156200056b579182015b828111156200056a5782518255916020019190600101906200054d565b5b5090506200057a9190620004cf565b5090565b620005ac91905b80821115620005a857600081816200059e9190620005af565b5060010162000585565b5090565b90565b50805460018160011615610100020316600290046000825580601f10620005d75750620005f8565b601f016020900490600052602060002090810190620005f79190620004cf565b5b50565b6000815190506200060c816200085b565b92915050565b600081519050620006238162000875565b92915050565b6000815190506200063a816200088f565b92915050565b6000815190506200065181620008a9565b92915050565b6000815190506200066881620008c3565b92915050565b600080600080600060a086880312156200068757600080fd5b6000620006978882890162000629565b9550506020620006aa8882890162000612565b9450506040620006bd8882890162000640565b9350506060620006d088828901620005fb565b9250506080620006e38882890162000657565b9150509295509295909350565b600081546001811660008114620007105760018114620007385762000782565b607f6002830416620007238187620007b8565b955060ff198316865280860193505062000782565b60028204620007488187620007b8565b95506200075585620007a3565b60005b82811015620007795781548189015260018201915060208101905062000758565b82880195505050505b505092915050565b6000620007988284620006f0565b915081905092915050565b60008190508160005260206000209050919050565b600081905092915050565b6000620007d0826200083b565b9050919050565b6000620007e482620007c3565b9050919050565b6000620007f882620007c3565b9050919050565b60006200080c82620007c3565b9050919050565b60006200082082620007c3565b9050919050565b60006200083482620007c3565b9050919050565b600073ffffffffffffffffffffffffffffffffffffffff82169050919050565b6200086681620007d7565b81146200087257600080fd5b50565b6200088081620007eb565b81146200088c57600080fd5b50565b6200089a81620007ff565b8114620008a657600080fd5b50565b620008b48162000813565b8114620008c057600080fd5b50565b620008ce8162000827565b8114620008da57600080fd5b50565b6133c880620008ed6000396000f3fe608060405234801561001057600080fd5b506004361061014d5760003560e01c806366df2db0116100c3578063c535e00c1161007c578063c535e00c146103de578063d9c979701461040e578063e04506311461043e578063e600856e1461046e578063fb03380c1461049e578063ff33e294146104ce5761014d565b806366df2db0146102e25780636a798361146103125780637bf1a62714610342578063a53aa4be14610360578063be22f54614610390578063c1934628146103ae5761014d565b80633a89df44116101155780633a89df441461021c578063493b0bea1461023a5780634acd17221461025857806351a0d0321461028857806357eb1846146102a65780635eb186f8146102c45761014d565b8063014253e81461015257806306fdde031461016e5780630989b8651461018c5780630d9a9411146101bc57806330de54a7146101ec575b600080fd5b61016c60048036036101679190810190612bf4565b6104ea565b005b610176610cf6565b6040516101839190613052565b60405180910390f35b6101a660048036036101a19190810190612ba2565b610d94565b6040516101b39190613052565b60405180910390f35b6101d660048036036101d19190810190612bf4565b610e44565b6040516101e391906130d4565b60405180910390f35b61020660048036036102019190810190612aa3565b6114a3565b60405161021391906130d4565b60405180910390f35b6102246114de565b6040516102319190613037565b60405180910390f35b610242611504565b60405161024f91906130d4565b60405180910390f35b610272600480360361026d9190810190612b20565b61150a565b60405161027f91906130d4565b60405180910390f35b610290611538565b60405161029d9190612fcb565b60405180910390f35b6102ae61155e565b6040516102bb91906130d4565b60405180910390f35b6102cc611564565b6040516102d99190613001565b60405180910390f35b6102fc60048036036102f79190810190612aa3565b61158a565b60405161030991906130d4565b60405180910390f35b61032c60048036036103279190810190612b20565b6115c5565b60405161033991906130d4565b60405180910390f35b61034a6115f3565b604051610357919061301c565b60405180910390f35b61037a60048036036103759190810190612bf4565b611619565b60405161038791906130d4565b60405180910390f35b61039861164f565b6040516103a59190612fe6565b60405180910390f35b6103c860048036036103c39190810190612b61565b611675565b6040516103d591906130d4565b60405180910390f35b6103f860048036036103f39190810190612b61565b61170a565b60405161040591906130d4565b60405180910390f35b61042860048036036104239190810190612aa3565b61218b565b60405161043591906130d4565b60405180910390f35b61045860048036036104539190810190612b20565b6121c6565b60405161046591906130d4565b60405180910390f35b61048860048036036104839190810190612bf4565b6121f4565b60405161049591906130d4565b60405180910390f35b6104b860048036036104b39190810190612b20565b61222a565b6040516104c591906130d4565b60405180910390f35b6104e860048036036104e39190810190612bf4565b612258565b005b60006011826040516104fc9190612ef9565b90815260200160405180910390205460125484028161051757fe5b0490506000600160009054906101000a900473ffffffffffffffffffffffffffffffffffffffff1673ffffffffffffffffffffffffffffffffffffffff166370a08231336040518263ffffffff1660e01b81526004016105779190612f27565b60206040518083038186803b15801561058f57600080fd5b505afa1580156105a3573d6000803e3d6000fd5b505050506040513d601f19601f820116820180604052506105c79190810190612bcb565b90508181101561064f577fea0dad277475f1f650692aa566fc6af2b777ca6efe1c6b08c045540a736cac63600083604051610603929190612fa2565b60405180910390a18181101561064e576040517f08c379a0000000000000000000000000000000000000000000000000000000008152600401610645906130b4565b60405180910390fd5b5b600160009054906101000a900473ffffffffffffffffffffffffffffffffffffffff1673ffffffffffffffffffffffffffffffffffffffff166323b872dd3330856040518463ffffffff1660e01b81526004016106ae93929190612f42565b602060405180830381600087803b1580156106c857600080fd5b505af11580156106dc573d6000803e3d6000fd5b505050506040513d601f19601f820116820180604052506107009190810190612af7565b50600760006004811061070f57fe5b016040516020016107209190612f10565b60405160208183030381529060405280519060200120836040516020016107479190612ef9565b60405160208183030381529060405280519060200120141561081857600260009054906101000a900473ffffffffffffffffffffffffffffffffffffffff1673ffffffffffffffffffffffffffffffffffffffff1663a9059cbb33866040518363ffffffff1660e01b81526004016107c0929190612f79565b602060405180830381600087803b1580156107da57600080fd5b505af11580156107ee573d6000803e3d6000fd5b505050506040513d601f19601f820116820180604052506108129190810190612af7565b50610af9565b600760016004811061082657fe5b016040516020016108379190612f10565b604051602081830303815290604052805190602001208360405160200161085e9190612ef9565b60405160208183030381529060405280519060200120141561092f57600360009054906101000a900473ffffffffffffffffffffffffffffffffffffffff1673ffffffffffffffffffffffffffffffffffffffff1663a9059cbb33866040518363ffffffff1660e01b81526004016108d7929190612f79565b602060405180830381600087803b1580156108f157600080fd5b505af1158015610905573d6000803e3d6000fd5b505050506040513d601f19601f820116820180604052506109299190810190612af7565b50610af8565b600760026004811061093d57fe5b0160405160200161094e9190612f10565b60405160208183030381529060405280519060200120836040516020016109759190612ef9565b604051602081830303815290604052805190602001201415610a4657600460009054906101000a900473ffffffffffffffffffffffffffffffffffffffff1673ffffffffffffffffffffffffffffffffffffffff1663a9059cbb33866040518363ffffffff1660e01b81526004016109ee929190612f79565b602060405180830381600087803b158015610a0857600080fd5b505af1158015610a1c573d6000803e3d6000fd5b505050506040513d601f19601f82011682018060405250610a409190810190612af7565b50610af7565b600560009054906101000a900473ffffffffffffffffffffffffffffffffffffffff1673ffffffffffffffffffffffffffffffffffffffff1663a9059cbb33866040518363ffffffff1660e01b8152600401610aa3929190612f79565b602060405180830381600087803b158015610abd57600080fd5b505af1158015610ad1573d6000803e3d6000fd5b505050506040513d601f19601f82011682018060405250610af59190810190612af7565b505b5b5b83600e60003373ffffffffffffffffffffffffffffffffffffffff1673ffffffffffffffffffffffffffffffffffffffff16815260200190815260200160002084604051610b479190612ef9565b90815260200160405180910390205401600e60003373ffffffffffffffffffffffffffffffffffffffff1673ffffffffffffffffffffffffffffffffffffffff16815260200190815260200160002084604051610ba49190612ef9565b90815260200160405180910390208190555081600f60003373ffffffffffffffffffffffffffffffffffffffff1673ffffffffffffffffffffffffffffffffffffffff16815260200190815260200160002084604051610c049190612ef9565b90815260200160405180910390205401600f60003373ffffffffffffffffffffffffffffffffffffffff1673ffffffffffffffffffffffffffffffffffffffff16815260200190815260200160002084604051610c619190612ef9565b90815260200160405180910390208190555083600c84604051610c849190612ef9565b90815260200160405180910390205403600c84604051610ca49190612ef9565b9081526020016040518091039020819055507f225fd8f33fb4d882be6fa6d1623b550ccad39e87085df43e5bf0165a9c2993e3600183604051610ce8929190612fa2565b60405180910390a150505050565b60008054600181600116156101000203166002900480601f016020809104026020016040519081016040528092919081815260200182805460018160011615610100020316600290048015610d8c5780601f10610d6157610100808354040283529160200191610d8c565b820191906000526020600020905b815481529060010190602001808311610d6f57829003601f168201915b505050505081565b60078160048110610da157fe5b016000915090508054600181600116156101000203166002900480601f016020809104026020016040519081016040528092919081815260200182805460018160011615610100020316600290048015610e3c5780601f10610e1157610100808354040283529160200191610e3c565b820191906000526020600020905b815481529060010190602001808311610e1f57829003601f168201915b505050505081565b6000808311610e88576040517f08c379a0000000000000000000000000000000000000000000000000000000008152600401610e7f90613074565b60405180910390fd5b6007600060048110610e9657fe5b01604051602001610ea79190612f10565b6040516020818303038152906040528051906020012082604051602001610ece9190612ef9565b604051602081830303815290604052805190602001201415610fa157600260009054906101000a900473ffffffffffffffffffffffffffffffffffffffff1673ffffffffffffffffffffffffffffffffffffffff166323b872dd3330866040518463ffffffff1660e01b8152600401610f4993929190612f42565b602060405180830381600087803b158015610f6357600080fd5b505af1158015610f77573d6000803e3d6000fd5b505050506040513d601f19601f82011682018060405250610f9b9190810190612af7565b50611288565b6007600160048110610faf57fe5b01604051602001610fc09190612f10565b6040516020818303038152906040528051906020012082604051602001610fe79190612ef9565b6040516020818303038152906040528051906020012014156110ba57600360009054906101000a900473ffffffffffffffffffffffffffffffffffffffff1673ffffffffffffffffffffffffffffffffffffffff166323b872dd3330866040518463ffffffff1660e01b815260040161106293929190612f42565b602060405180830381600087803b15801561107c57600080fd5b505af1158015611090573d6000803e3d6000fd5b505050506040513d601f19601f820116820180604052506110b49190810190612af7565b50611287565b60076002600481106110c857fe5b016040516020016110d99190612f10565b60405160208183030381529060405280519060200120826040516020016111009190612ef9565b6040516020818303038152906040528051906020012014156111d357600460009054906101000a900473ffffffffffffffffffffffffffffffffffffffff1673ffffffffffffffffffffffffffffffffffffffff166323b872dd3330866040518463ffffffff1660e01b815260040161117b93929190612f42565b602060405180830381600087803b15801561119557600080fd5b505af11580156111a9573d6000803e3d6000fd5b505050506040513d601f19601f820116820180604052506111cd9190810190612af7565b50611286565b600560009054906101000a900473ffffffffffffffffffffffffffffffffffffffff1673ffffffffffffffffffffffffffffffffffffffff166323b872dd3330866040518463ffffffff1660e01b815260040161123293929190612f42565b602060405180830381600087803b15801561124c57600080fd5b505af1158015611260573d6000803e3d6000fd5b505050506040513d601f19601f820116820180604052506112849190810190612af7565b505b5b5b82600b60003373ffffffffffffffffffffffffffffffffffffffff1673ffffffffffffffffffffffffffffffffffffffff168152602001908152602001600020836040516112d69190612ef9565b90815260200160405180910390205401600b60003373ffffffffffffffffffffffffffffffffffffffff1673ffffffffffffffffffffffffffffffffffffffff168152602001908152602001600020836040516113339190612ef9565b9081526020016040518091039020819055506010826040516113559190612ef9565b90815260200160405180910390205460125484028161137057fe5b049050600160009054906101000a900473ffffffffffffffffffffffffffffffffffffffff1673ffffffffffffffffffffffffffffffffffffffff1663a9059cbb33836040518363ffffffff1660e01b81526004016113d0929190612f79565b602060405180830381600087803b1580156113ea57600080fd5b505af11580156113fe573d6000803e3d6000fd5b505050506040513d601f19601f820116820180604052506114229190810190612af7565b5082600c836040516114349190612ef9565b90815260200160405180910390205401600c836040516114549190612ef9565b9081526020016040518091039020819055507ff706192ae5871075aeabd0deba7c8994a119fb329b7ecd42221be2c6907318ac8160405161149591906130d4565b60405180910390a192915050565b600f60205281600052604060002081805160208101820180518482526020830160208501208183528095505050505050600091509150505481565b600560009054906101000a900473ffffffffffffffffffffffffffffffffffffffff1681565b60125481565b6011818051602081018201805184825260208301602085012081835280955050505050506000915090505481565b600460009054906101000a900473ffffffffffffffffffffffffffffffffffffffff1681565b60135481565b600160009054906101000a900473ffffffffffffffffffffffffffffffffffffffff1681565b600b60205281600052604060002081805160208101820180518482526020830160208501208183528095505050505050600091509150505481565b600c818051602081018201805184825260208301602085012081835280955050505050506000915090505481565b600360009054906101000a900473ffffffffffffffffffffffffffffffffffffffff1681565b600060108260405161162b9190612ef9565b90815260200160405180910390205460125484028161164657fe5b04905092915050565b600260009054906101000a900473ffffffffffffffffffffffffffffffffffffffff1681565b600080600f60003373ffffffffffffffffffffffffffffffffffffffff1673ffffffffffffffffffffffffffffffffffffffff168152602001908152602001600020836040516116c59190612ef9565b90815260200160405180910390205490506012546011846040516116e99190612ef9565b90815260200160405180910390205482028161170157fe5b04915050919050565b600080600f60003373ffffffffffffffffffffffffffffffffffffffff1673ffffffffffffffffffffffffffffffffffffffff1681526020019081526020016000208360405161175a9190612ef9565b908152602001604051809103902054905060006012546011856040516117809190612ef9565b90815260200160405180910390205483028161179857fe5b04905060076000600481106117a957fe5b016040516020016117ba9190612f10565b60405160208183030381529060405280519060200120846040516020016117e19190612ef9565b6040516020818303038152906040528051906020012014156118b457600260009054906101000a900473ffffffffffffffffffffffffffffffffffffffff1673ffffffffffffffffffffffffffffffffffffffff166323b872dd3330846040518463ffffffff1660e01b815260040161185c93929190612f42565b602060405180830381600087803b15801561187657600080fd5b505af115801561188a573d6000803e3d6000fd5b505050506040513d601f19601f820116820180604052506118ae9190810190612af7565b50611b9b565b60076001600481106118c257fe5b016040516020016118d39190612f10565b60405160208183030381529060405280519060200120846040516020016118fa9190612ef9565b6040516020818303038152906040528051906020012014156119cd57600360009054906101000a900473ffffffffffffffffffffffffffffffffffffffff1673ffffffffffffffffffffffffffffffffffffffff166323b872dd3330846040518463ffffffff1660e01b815260040161197593929190612f42565b602060405180830381600087803b15801561198f57600080fd5b505af11580156119a3573d6000803e3d6000fd5b505050506040513d601f19601f820116820180604052506119c79190810190612af7565b50611b9a565b60076002600481106119db57fe5b016040516020016119ec9190612f10565b6040516020818303038152906040528051906020012084604051602001611a139190612ef9565b604051602081830303815290604052805190602001201415611ae657600460009054906101000a900473ffffffffffffffffffffffffffffffffffffffff1673ffffffffffffffffffffffffffffffffffffffff166323b872dd3330846040518463ffffffff1660e01b8152600401611a8e93929190612f42565b602060405180830381600087803b158015611aa857600080fd5b505af1158015611abc573d6000803e3d6000fd5b505050506040513d601f19601f82011682018060405250611ae09190810190612af7565b50611b99565b600560009054906101000a900473ffffffffffffffffffffffffffffffffffffffff1673ffffffffffffffffffffffffffffffffffffffff166323b872dd3330846040518463ffffffff1660e01b8152600401611b4593929190612f42565b602060405180830381600087803b158015611b5f57600080fd5b505af1158015611b73573d6000803e3d6000fd5b505050506040513d601f19601f82011682018060405250611b979190810190612af7565b505b5b5b6000600e60003373ffffffffffffffffffffffffffffffffffffffff1673ffffffffffffffffffffffffffffffffffffffff16815260200190815260200160002085604051611bea9190612ef9565b90815260200160405180910390205490506000600e60003373ffffffffffffffffffffffffffffffffffffffff1673ffffffffffffffffffffffffffffffffffffffff16815260200190815260200160002086604051611c4a9190612ef9565b9081526020016040518091039020819055506000600f60003373ffffffffffffffffffffffffffffffffffffffff1673ffffffffffffffffffffffffffffffffffffffff16815260200190815260200160002086604051611cab9190612ef9565b908152602001604051809103902081905550600160009054906101000a900473ffffffffffffffffffffffffffffffffffffffff1673ffffffffffffffffffffffffffffffffffffffff1663a9059cbb33856040518363ffffffff1660e01b8152600401611d1a929190612f79565b602060405180830381600087803b158015611d3457600080fd5b505af1158015611d48573d6000803e3d6000fd5b505050506040513d601f19601f82011682018060405250611d6c9190810190612af7565b506000600283830381611d7b57fe5b04905080600d87604051611d8f9190612ef9565b90815260200160405180910390205401600d87604051611daf9190612ef9565b9081526020016040518091039020819055507f8a36f5a234186d446e36a7df36ace663a05a580d9bea2dd899c6dd76a075d5fa81600c88604051611df39190612ef9565b90815260200160405180910390205401604051611e1091906130d4565b60405180910390a17f8a36f5a234186d446e36a7df36ace663a05a580d9bea2dd899c6dd76a075d5fa601087604051611e499190612ef9565b90815260200160405180910390205482600c89604051611e699190612ef9565b9081526020016040518091039020540102604051611e8791906130d4565b60405180910390a17f8a36f5a234186d446e36a7df36ace663a05a580d9bea2dd899c6dd76a075d5fa600c87604051611ec09190612ef9565b90815260200160405180910390205460125402604051611ee091906130d4565b60405180910390a17f8a36f5a234186d446e36a7df36ace663a05a580d9bea2dd899c6dd76a075d5fa600c87604051611f199190612ef9565b908152602001604051809103902054601088604051611f389190612ef9565b90815260200160405180910390205483600c8a604051611f589190612ef9565b908152602001604051809103902054010281611f7057fe5b04604051611f7e91906130d4565b60405180910390a16103e8600c87604051611f999190612ef9565b908152602001604051809103902054601088604051611fb89190612ef9565b90815260200160405180910390205483600c8a604051611fd89190612ef9565b908152602001604051809103902054010281611ff057fe5b04016010876040516120029190612ef9565b9081526020016040518091039020819055506113886010876040516120279190612ef9565b908152602001604051809103902054036011876040516120479190612ef9565b9081526020016040518091039020819055507f8a36f5a234186d446e36a7df36ace663a05a580d9bea2dd899c6dd76a075d5fa60108760405161208a9190612ef9565b9081526020016040518091039020546040516120a691906130d4565b60405180910390a17f8a36f5a234186d446e36a7df36ace663a05a580d9bea2dd899c6dd76a075d5fa6011876040516120df9190612ef9565b9081526020016040518091039020546040516120fb91906130d4565b60405180910390a18082600c886040516121159190612ef9565b9081526020016040518091039020540101600c876040516121369190612ef9565b9081526020016040518091039020819055507ffc5cccee3090d322c6be60643b6d5cd0cb77ef5b82c1fdf8a4f8cc78da2563fa60018360405161217a929190612fa2565b60405180910390a150505050919050565b600e60205281600052604060002081805160208101820180518482526020830160208501208183528095505050505050600091509150505481565b600d818051602081018201805184825260208301602085012081835280955050505050506000915090505481565b60006011826040516122069190612ef9565b90815260200160405180910390205460125484028161222157fe5b04905092915050565b6010818051602081018201805184825260208301602085012081835280955050505050506000915090505481565b600060108260405161226a9190612ef9565b90815260200160405180910390205460125484028161228557fe5b0490506000600160009054906101000a900473ffffffffffffffffffffffffffffffffffffffff1673ffffffffffffffffffffffffffffffffffffffff166370a08231336040518263ffffffff1660e01b81526004016122e59190612f27565b60206040518083038186803b1580156122fd57600080fd5b505afa158015612311573d6000803e3d6000fd5b505050506040513d601f19601f820116820180604052506123359190810190612bcb565b9050818110156123bd577fea0dad277475f1f650692aa566fc6af2b777ca6efe1c6b08c045540a736cac63600083604051612371929190612fa2565b60405180910390a1818110156123bc576040517f08c379a00000000000000000000000000000000000000000000000000000000081526004016123b390613094565b60405180910390fd5b5b600160009054906101000a900473ffffffffffffffffffffffffffffffffffffffff1673ffffffffffffffffffffffffffffffffffffffff166323b872dd3330856040518463ffffffff1660e01b815260040161241c93929190612f42565b602060405180830381600087803b15801561243657600080fd5b505af115801561244a573d6000803e3d6000fd5b505050506040513d601f19601f8201168201806040525061246e9190810190612af7565b50600760006004811061247d57fe5b0160405160200161248e9190612f10565b60405160208183030381529060405280519060200120836040516020016124b59190612ef9565b60405160208183030381529060405280519060200120141561258657600260009054906101000a900473ffffffffffffffffffffffffffffffffffffffff1673ffffffffffffffffffffffffffffffffffffffff1663a9059cbb33866040518363ffffffff1660e01b815260040161252e929190612f79565b602060405180830381600087803b15801561254857600080fd5b505af115801561255c573d6000803e3d6000fd5b505050506040513d601f19601f820116820180604052506125809190810190612af7565b50612867565b600760016004811061259457fe5b016040516020016125a59190612f10565b60405160208183030381529060405280519060200120836040516020016125cc9190612ef9565b60405160208183030381529060405280519060200120141561269d57600360009054906101000a900473ffffffffffffffffffffffffffffffffffffffff1673ffffffffffffffffffffffffffffffffffffffff1663a9059cbb33866040518363ffffffff1660e01b8152600401612645929190612f79565b602060405180830381600087803b15801561265f57600080fd5b505af1158015612673573d6000803e3d6000fd5b505050506040513d601f19601f820116820180604052506126979190810190612af7565b50612866565b60076002600481106126ab57fe5b016040516020016126bc9190612f10565b60405160208183030381529060405280519060200120836040516020016126e39190612ef9565b6040516020818303038152906040528051906020012014156127b457600460009054906101000a900473ffffffffffffffffffffffffffffffffffffffff1673ffffffffffffffffffffffffffffffffffffffff1663a9059cbb33866040518363ffffffff1660e01b815260040161275c929190612f79565b602060405180830381600087803b15801561277657600080fd5b505af115801561278a573d6000803e3d6000fd5b505050506040513d601f19601f820116820180604052506127ae9190810190612af7565b50612865565b600560009054906101000a900473ffffffffffffffffffffffffffffffffffffffff1673ffffffffffffffffffffffffffffffffffffffff1663a9059cbb33866040518363ffffffff1660e01b8152600401612811929190612f79565b602060405180830381600087803b15801561282b57600080fd5b505af115801561283f573d6000803e3d6000fd5b505050506040513d601f19601f820116820180604052506128639190810190612af7565b505b5b5b83600b60003373ffffffffffffffffffffffffffffffffffffffff1673ffffffffffffffffffffffffffffffffffffffff168152602001908152602001600020846040516128b59190612ef9565b90815260200160405180910390205403600b60003373ffffffffffffffffffffffffffffffffffffffff1673ffffffffffffffffffffffffffffffffffffffff168152602001908152602001600020846040516129129190612ef9565b90815260200160405180910390208190555083600c846040516129359190612ef9565b90815260200160405180910390205403600c846040516129559190612ef9565b9081526020016040518091039020819055507fea0dad277475f1f650692aa566fc6af2b777ca6efe1c6b08c045540a736cac63600183604051612999929190612fa2565b60405180910390a150505050565b6000813590506129b681613340565b92915050565b6000815190506129cb81613357565b92915050565b600082601f8301126129e257600080fd5b81356129f56129f08261311c565b6130ef565b91508082526020830160208301858383011115612a1157600080fd5b612a1c8382846132ed565b50505092915050565b600082601f830112612a3657600080fd5b8135612a49612a4482613148565b6130ef565b91508082526020830160208301858383011115612a6557600080fd5b612a708382846132ed565b50505092915050565b600081359050612a888161336e565b92915050565b600081519050612a9d8161336e565b92915050565b60008060408385031215612ab657600080fd5b6000612ac4858286016129a7565b925050602083013567ffffffffffffffff811115612ae157600080fd5b612aed858286016129d1565b9150509250929050565b600060208284031215612b0957600080fd5b6000612b17848285016129bc565b91505092915050565b600060208284031215612b3257600080fd5b600082013567ffffffffffffffff811115612b4c57600080fd5b612b58848285016129d1565b91505092915050565b600060208284031215612b7357600080fd5b600082013567ffffffffffffffff811115612b8d57600080fd5b612b9984828501612a25565b91505092915050565b600060208284031215612bb457600080fd5b6000612bc284828501612a79565b91505092915050565b600060208284031215612bdd57600080fd5b6000612beb84828501612a8e565b91505092915050565b60008060408385031215612c0757600080fd5b6000612c1585828601612a79565b925050602083013567ffffffffffffffff811115612c3257600080fd5b612c3e85828601612a25565b9150509250929050565b612c5181613203565b82525050565b612c60816131bb565b82525050565b612c6f816131cd565b82525050565b612c7e81613215565b82525050565b612c8d81613239565b82525050565b612c9c8161325d565b82525050565b612cab81613281565b82525050565b612cba816132a5565b82525050565b6000612ccb82613194565b612cd581856131b0565b9350612ce58185602086016132fc565b80840191505092915050565b6000612cfc82613189565b612d06818561319f565b9350612d168185602086016132fc565b612d1f8161332f565b840191505092915050565b600081546001811660008114612d475760018114612d6c57612db0565b607f6002830416612d5881876131b0565b955060ff1983168652808601935050612db0565b60028204612d7a81876131b0565b9550612d8585613174565b60005b82811015612da757815481890152600182019150602081019050612d88565b82880195505050505b505092915050565b6000612dc560278361319f565b91507f5374616b696e6720616d6f756e742073686f756c64206265206772656174657260008301527f207468616e2030000000000000000000000000000000000000000000000000006020830152604082019050919050565b6000612e2b60228361319f565b91507f596f7520446f6e277420686176652073756666696369656e742062616c616e6360008301527f652e0000000000000000000000000000000000000000000000000000000000006020830152604082019050919050565b6000612e91602d8361319f565b91507f596f7520446f6e277420686176652073756666696369656e7420636f6c6c617460008301527f6572616c2062616c616e63652e000000000000000000000000000000000000006020830152604082019050919050565b612ef3816131f9565b82525050565b6000612f058284612cc0565b915081905092915050565b6000612f1c8284612d2a565b915081905092915050565b6000602082019050612f3c6000830184612c48565b92915050565b6000606082019050612f576000830186612c48565b612f646020830185612c57565b612f716040830184612eea565b949350505050565b6000604082019050612f8e6000830185612c48565b612f9b6020830184612eea565b9392505050565b6000604082019050612fb76000830185612c66565b612fc46020830184612eea565b9392505050565b6000602082019050612fe06000830184612c75565b92915050565b6000602082019050612ffb6000830184612c84565b92915050565b60006020820190506130166000830184612c93565b92915050565b60006020820190506130316000830184612ca2565b92915050565b600060208201905061304c6000830184612cb1565b92915050565b6000602082019050818103600083015261306c8184612cf1565b905092915050565b6000602082019050818103600083015261308d81612db8565b9050919050565b600060208201905081810360008301526130ad81612e1e565b9050919050565b600060208201905081810360008301526130cd81612e84565b9050919050565b60006020820190506130e96000830184612eea565b92915050565b6000604051905081810181811067ffffffffffffffff8211171561311257600080fd5b8060405250919050565b600067ffffffffffffffff82111561313357600080fd5b601f19601f8301169050602081019050919050565b600067ffffffffffffffff82111561315f57600080fd5b601f19601f8301169050602081019050919050565b60008190508160005260206000209050919050565b600081519050919050565b600081519050919050565b600082825260208201905092915050565b600081905092915050565b60006131c6826131d9565b9050919050565b60008115159050919050565b600073ffffffffffffffffffffffffffffffffffffffff82169050919050565b6000819050919050565b600061320e826132c9565b9050919050565b600061322082613227565b9050919050565b6000613232826131d9565b9050919050565b60006132448261324b565b9050919050565b6000613256826131d9565b9050919050565b60006132688261326f565b9050919050565b600061327a826131d9565b9050919050565b600061328c82613293565b9050919050565b600061329e826131d9565b9050919050565b60006132b0826132b7565b9050919050565b60006132c2826131d9565b9050919050565b60006132d4826132db565b9050919050565b60006132e6826131d9565b9050919050565b82818337600083830152505050565b60005b8381101561331a5780820151818401526020810190506132ff565b83811115613329576000848401525b50505050565b6000601f19601f8301169050919050565b613349816131bb565b811461335457600080fd5b50565b613360816131cd565b811461336b57600080fd5b50565b613377816131f9565b811461338257600080fd5b5056fea365627a7a723158209c1f86053740a59857c57c2b5b0d5e66a6f78e1ee557122cd6ced2c789e05ce66c6578706572696d656e74616cf564736f6c63430005110040",
  "source": "pragma solidity ^0.5.0;\npragma experimental ABIEncoderV2;\n\nimport \"./DappToken.sol\";\nimport \"./DaiToken.sol\";\nimport \"./EthToken.sol\";\nimport \"./BlToken.sol\";\nimport \"./OpToken.sol\";\n\ncontract TokenFarm {\n    string public name = \"Dapp Token Farm\";\n    DappToken public dappToken;\n    DaiToken public daiToken;\n    EthToken public ethToken;\n    BlToken public blToken;\n    OpToken public opToken;\n    address owner;\n\n    string[4] public mockTokens = [\"mDAI\", \"mETH\", \"mBL\", \"mOP\"];\n    mapping(address => mapping(string => uint)) public stakingBalance;\n    mapping(string => uint) public marketFund;\n    mapping(string => uint) public profit;\n    mapping(address => mapping(string => uint)) public borrowBalance;\n    mapping(address => mapping(string => uint)) public borrowCollateralBalance;\n    mapping(string => uint) public supplyApy;\n    mapping(string => uint) public borrowApy;\n    uint public apyDigits = 100000;\n    uint public tokenDigits = 1000000000000000000;\n\n    event Error(string msg);\n    event TokenLended(uint reward);\n    event TokenRetrieved(bool success, uint retriveAmount);\n    event TokenBorrowed(bool success, uint collateralAmount);\n    event TokenRepayed(bool success, uint repaymentAmount);\n\n    event Debug(uint log);\n\n    // Runs when contract is deployed\n    constructor(DappToken _dappToken, DaiToken _daiToken, EthToken _ethToken, BlToken _blToken, OpToken _opToken) public {\n        dappToken = _dappToken;\n        daiToken = _daiToken;\n        ethToken = _ethToken;\n        blToken = _blToken;\n        opToken = _opToken;\n        owner = msg.sender;\n\n        for(uint j=0; j<mockTokens.length; j++){\n            supplyApy[mockTokens[j]] = 25000;\n            borrowApy[mockTokens[j]] = 20000;\n            marketFund[mockTokens[j]] = 0;\n        }\n    }\n\n\n\n\n    // Stakes mockTokens\n    function stakeTokens(uint _amount, string memory tokenToStake) public returns(uint rewardToken){\n\n        // Require staking amount greater than 0\n        require(_amount > 0, \"Staking amount should be greater than 0\");\n\n        // Transfer Mock Token to this contract for staking\n        if(keccak256(abi.encodePacked(tokenToStake)) == keccak256(abi.encodePacked(mockTokens[0]))){\n            daiToken.transferFrom(msg.sender, address(this), _amount);\n        }\n        else if(keccak256(abi.encodePacked(tokenToStake)) == keccak256(abi.encodePacked(mockTokens[1]))){\n            ethToken.transferFrom(msg.sender, address(this), _amount);\n        }\n        else if(keccak256(abi.encodePacked(tokenToStake)) == keccak256(abi.encodePacked(mockTokens[2]))){\n            blToken.transferFrom(msg.sender, address(this), _amount);\n        }\n        else{\n            opToken.transferFrom(msg.sender, address(this), _amount);\n        }\n\n\n        // Update Stacking Balance\n        stakingBalance[msg.sender][tokenToStake] = stakingBalance[msg.sender][tokenToStake] + _amount;\n\n        // Transfering Reward Dapp Token to Sender Account\n        rewardToken = (_amount*apyDigits)/supplyApy[tokenToStake];\n        dappToken.transfer(msg.sender, rewardToken);\n\n        // Managing Market Fund\n        marketFund[tokenToStake] = marketFund[tokenToStake] + _amount;\n\n        // Emmiting reward Amount to use in frontend\n        emit TokenLended(rewardToken);\n    }\n\n    function dappRequireToUnstake(uint _amount, string memory tokenToUnStake) public returns(uint retrivalAmount){\n        return (_amount*apyDigits)/supplyApy[tokenToUnStake];\n    }\n\n    // Unstaking Token\n    function unstakeTokens(uint _amount, string memory tokenToUnStake) public {\n\n        // Calculating Retrival Dapp Token Amount\n        uint retrieveAmount = (_amount*apyDigits)/supplyApy[tokenToUnStake];\n\n        // Checking if user have sufficient dapp Amount\n        uint balance = dappToken.balanceOf(msg.sender);\n        if(balance < retrieveAmount){\n            emit TokenRetrieved(false, retrieveAmount);\n            require(balance >= retrieveAmount, \"You Don't have sufficient balance.\");\n        }\n        \n        // Transfering Retrival Dapp Token from Sender Account to Contract\n        dappToken.transferFrom(msg.sender, address(this), retrieveAmount);\n        \n\n\n        // Transfer Mock Token from this contract to Sender Account for Retrival \n        if(keccak256(abi.encodePacked(tokenToUnStake)) == keccak256(abi.encodePacked(mockTokens[0]))){\n            daiToken.transfer(msg.sender, _amount);\n        }\n        else if(keccak256(abi.encodePacked(tokenToUnStake)) == keccak256(abi.encodePacked(mockTokens[1]))){\n            ethToken.transfer(msg.sender, _amount);\n        }\n        else if(keccak256(abi.encodePacked(tokenToUnStake)) == keccak256(abi.encodePacked(mockTokens[2]))){\n            blToken.transfer(msg.sender, _amount);\n        }\n        else{\n            opToken.transfer(msg.sender, _amount);\n        }\n\n        // Reset staking balance\n        stakingBalance[msg.sender][tokenToUnStake] = stakingBalance[msg.sender][tokenToUnStake] - _amount;\n\n        // Managing Market Fund\n        marketFund[tokenToUnStake] = marketFund[tokenToUnStake] - _amount;\n\n        emit TokenRetrieved(true, retrieveAmount);\n    }\n\n\n\n    function dappRequireToBorrow(uint _amount, string memory tokenToBorrow) public returns(uint retrivalAmount){\n        return (_amount*apyDigits)/borrowApy[tokenToBorrow];\n    }\n\n    // Borrowing Token\n    function borrowTokens(uint _amount, string memory tokenToBorrow) public {\n        // Calculating collateral Dapp Token Amount\n        uint collateralAmount = (_amount*apyDigits)/borrowApy[tokenToBorrow];\n\n        // Checking if user have sufficient dapp Amount\n        uint balance = dappToken.balanceOf(msg.sender);\n        if(balance < collateralAmount){\n            emit TokenRetrieved(false, collateralAmount);\n            require(balance >= collateralAmount, \"You Don't have sufficient collateral balance.\");\n        }\n        \n        // Transfering collateral Dapp Token from Sender Account to Contract\n        dappToken.transferFrom(msg.sender, address(this), collateralAmount);\n        \n\n\n        // Transfer Mock Token from this contract to Sender Account for Retrival \n        if(keccak256(abi.encodePacked(tokenToBorrow)) == keccak256(abi.encodePacked(mockTokens[0]))){\n            daiToken.transfer(msg.sender, _amount);\n        }\n        else if(keccak256(abi.encodePacked(tokenToBorrow)) == keccak256(abi.encodePacked(mockTokens[1]))){\n            ethToken.transfer(msg.sender, _amount);\n        }\n        else if(keccak256(abi.encodePacked(tokenToBorrow)) == keccak256(abi.encodePacked(mockTokens[2]))){\n            blToken.transfer(msg.sender, _amount);\n        }\n        else{\n            opToken.transfer(msg.sender, _amount);\n        }\n\n        // Updating borrow balance\n        borrowBalance[msg.sender][tokenToBorrow] = borrowBalance[msg.sender][tokenToBorrow] + _amount;\n        borrowCollateralBalance[msg.sender][tokenToBorrow] = borrowCollateralBalance[msg.sender][tokenToBorrow] + collateralAmount;\n\n        // Managing Market Fund\n        marketFund[tokenToBorrow] = marketFund[tokenToBorrow] - _amount;\n\n        emit TokenBorrowed(true, collateralAmount);\n    }\n\n    function tokenRequireToRepay(string memory tokenToRepay) public returns(uint retrivalAmount){\n        uint _amount = borrowCollateralBalance[msg.sender][tokenToRepay];\n        return (_amount*borrowApy[tokenToRepay])/apyDigits;\n    }\n\n    // Repay mockTokens\n    function repayTokens(string memory tokenToRepay) public returns(uint rewardToken){\n\n        uint _amount = borrowCollateralBalance[msg.sender][tokenToRepay];\n\n        // Calculating mock token to repay to regain collateral\n        uint repayMockToken = (_amount*borrowApy[tokenToRepay])/apyDigits;\n\n        // Transfer Mock Token to this contract for repayment\n        if(keccak256(abi.encodePacked(tokenToRepay)) == keccak256(abi.encodePacked(mockTokens[0]))){\n            daiToken.transferFrom(msg.sender, address(this), repayMockToken);\n        }\n        else if(keccak256(abi.encodePacked(tokenToRepay)) == keccak256(abi.encodePacked(mockTokens[1]))){\n            ethToken.transferFrom(msg.sender, address(this), repayMockToken);\n        }\n        else if(keccak256(abi.encodePacked(tokenToRepay)) == keccak256(abi.encodePacked(mockTokens[2]))){\n            blToken.transferFrom(msg.sender, address(this), repayMockToken);\n        }\n        else{\n            opToken.transferFrom(msg.sender, address(this), repayMockToken);\n        }\n\n        uint repaymentAmount = borrowBalance[msg.sender][tokenToRepay];\n        \n        // Updating borrow balance\n        borrowBalance[msg.sender][tokenToRepay] = 0;\n        borrowCollateralBalance[msg.sender][tokenToRepay] = 0;\n\n        // Transfering collateral Dapp Token to Sender Account\n        dappToken.transfer(msg.sender, _amount);\n\n        // Calculate change APY\n        uint profitByRepay = (repaymentAmount - repayMockToken)/2;\n        profit[tokenToRepay] = profit[tokenToRepay] + profitByRepay;\n        emit Debug(((marketFund[tokenToRepay] + profitByRepay)));\n        emit Debug(((marketFund[tokenToRepay] + profitByRepay)*supplyApy[tokenToRepay]));\n        emit Debug((apyDigits*marketFund[tokenToRepay]));\n        emit Debug((((marketFund[tokenToRepay] + profitByRepay)*supplyApy[tokenToRepay])/(marketFund[tokenToRepay])));\n        supplyApy[tokenToRepay] = (((marketFund[tokenToRepay] + profitByRepay)*supplyApy[tokenToRepay])/marketFund[tokenToRepay]) + 1000;\n        borrowApy[tokenToRepay] = supplyApy[tokenToRepay] - 5000;\n\n        emit Debug(supplyApy[tokenToRepay]);\n        emit Debug(borrowApy[tokenToRepay]);\n\n        // Managing Market Fund\n        marketFund[tokenToRepay] = marketFund[tokenToRepay] + repaymentAmount + profitByRepay;\n\n        // Emmiting repayment Amount to use in frontend\n        emit TokenRepayed(true, repaymentAmount);\n    }\n}",
  "sourcePath": "C:\\Users\\Harsh\\Defi-Lending-App-master\\src\\contracts\\TokenFarm.sol",
  "compiler": {
    "name": "solc",
    "version": "0.5.17+commit.d19bba13.Emscripten.clang"
  },
  "schemaVersion": "3.4.10",
  "updatedAt": "2022-11-01T20:00:18.275Z",
  "devdoc": {
    "methods": {}
  },
  "userdoc": {
    "methods": {}
  }
}